:020000040800F2
:10000000A07100209D0100084D0E00089B0A000809
:10001000490E0008610700086D1900080000000083
:10002000000000000000000000000000B111000806
:10003000CF07000800000000DD0E0008CD12000808
:10004000B7010008B7010008B7010008B7010008B0
:10005000B7010008B7010008B7010008B7010008A0
:10006000B7010008B7010008B7010008B701000890
:10007000B7010008B7010008B7010008B701000880
:10008000B7010008B7010008B7010008B701000870
:10009000B7010008B7010008B7010008D107000840
:1000A000B7010008B7010008B7010008B701000850
:1000B000B7010008B7010008B7010008B701000840
:1000C000B7010008B7010008B7010008B701000830
:1000D000B70100082D1500083D1500084D15000852
:1000E000B7010008B7010008B7010008B701000810
:1000F000B7010008B7010008B7010008B701000800
:10010000B7010008B7010008B7010008B7010008EF
:10011000B7010008B7010008B7010008B7010008DF
:10012000B7010008B7010008B7010008B7010008CF
:10013000B7010008B7010008B7010008B7010008BF
:10014000B7010008B7010008B7010008B7010008AF
:10015000B7010008B7010008B701000875150008CD
:10016000B7010008B7010008B7010008B70100088F
:10017000B7010008B7010008B7010008B70100087F
:10018000B7010008B7010008DFF80CD000F02EF826
:10019000004800471D220008A07100200648804743
:1001A00006480047FEE7FEE7FEE7FEE7FEE7FEE75C
:1001B000FEE7FEE7FEE7FEE75913000889010008A5
:1001C00030B50B46014600202022012409E021FA27
:1001D00002F59D4205D303FA02F5491B04FA02F524
:1001E0002844151EA2F10102F1DC30BD064C074D7A
:1001F00006E0E06840F0010394E8070098471034F7
:10020000AC42F6D3FFF7C4FF6C2400088C2400082E
:100210001CB50121084600F02BFF0121582000F0F9
:1002200017FF0C220021524800F014FC0C2201217F
:100230004F4800F00FFC0C2204214D4800F00AFC4E
:100240000C2205214A4800F005FC0C2208214848F0
:1002500000F000FC0C220921454800F0FBFB0C22B9
:100260000A21434800F0F6FB0C220E21404800F022
:10027000F1FB0C220F213E4800F0ECFB4CF23370F6
:10028000009002208DF8040003208DF80500002066
:100290008DF806008DF807006946354800F092FB9E
:1002A0000C220421334800F0D5FB0C2205213148F3
:1002B00000F0D0FB0C2207212E4800F0CBFB0C22D3
:1002C00008212C4800F0C6FB0C220921294800F027
:1002D000C1FB0C220A21274800F0BCFB0C220B2199
:1002E000244800F0B7FB0C221146224800F0B2FB74
:1002F0000C220D211F4800F0ADFB0C220E211D48E1
:1003000000F0A8FB0C220F211A4800F0A3FB4FF6C7
:10031000B07000906946174800F054FB0C2211465B
:10032000154800F097FB4FF4805000906946124842
:1003300000F048FB01214FF4C07000F089FE01205D
:100340008DF8040003208DF8050000208DF80600CC
:100350008DF807004FF4BC4000906946074800F054
:1003600031FB102000906946054800F02BFB1CBDB6
:10037000000C02400010024000180240001C024025
:1003800000200240F0B589B004460121082000F0A9
:100390007FFE0121802000F05BFE4FF4805007902B
:1003A00002208DF8200003208DF8210000208DF818
:1003B000220001208DF8230007A93C4800F002FB31
:1003C00002220C21394800F045FB394800684708F3
:1003D00040F6B830844208D263256420B7FBF0F0C1
:1003E000B0FBF4F0401E86B204E00025B7FBF4F049
:1003F000401E86B20796ADF818500020ADF82000D8
:10040000ADF81A0006A92B4801F04EF86020ADF8AF
:1004100004000120ADF80600042003900220ADF88E
:10042000100001A9234800F0E3FF0821214801F052
:1004300031F801211F4800F0C3FF01211D4800F0E1
:10044000CBFF0121080200F003FE0121880300F028
:100450002FFE00208DF818008DF81B00402005901D
:1004600005A9154800F0AEFA0621082000F0A2FE0A
:100470004020079000208DF820000C208DF82100EE
:1004800001208DF8220007A800F0C8F917208DF888
:10049000100000208DF811008DF8120001208DF859
:1004A000130004A800F0D4FC09B0F0BD001C024009
:1004B00020000020000C00400020024000B597B052
:1004C0000320019000200290062003900120049058
:1004D00000200590069007900620089000200990C3
:1004E0000A9010200B9000200C900D900E900F9011
:1004F00010904FF48050119000201290139014909F
:1005000001A81590169008A800F0ECF9012106202A
:1005100000F0CEF917B000BD00B500F02DF80022B4
:1005200022E0134830F8121012484388083020F8AF
:10053000131008384088401C80B20E494880B0F53E
:10054000006F01DB002048800A488088B0F5006F0A
:1005500005DA08488088401C0649888002E00120AE
:1005600004498871501CC2B2082ADADB00BD0000C1
:1005700086210020962100201448008800B21449EA
:1005800048801248008801B2114881800F480088D5
:1005900001B20F48C1800D48008801B20C480181AA
:1005A0000A48008801B20A4841810848008801B21F
:1005B000074881810548008801B20548C181034888
:1005C000008801B202480182704700000000406CC0
:1005D000842100201020044948830883088308836D
:1005E00008834883704700000020024038B900218A
:1005F000074A51704FF48041064A118006E00121FC
:10060000034A51708903034A921E1180704700000B
:10061000842100201A1C02402C490870072846D269
:10062000DFE800F046040E19232E3A004FF4006173
:10063000274A1180491011804910921E118043E011
:100640004FF40061224A11804910921E1180491016
:10065000921C118038E04FF400611D4A118049104E
:10066000921E1180491011802EE04FF40061184A4B
:10067000921E11804910921C11804910118023E0B4
:100680004FF40061124A921E11804910921C118091
:100690004910921E118017E04FF400610C4A921E1F
:1006A0001180491011804910921C11800CE000BF8C
:1006B0000021064A11704FF40061054A118049106B
:1006C00011804910118000BF00BF704784210020B5
:1006D0001A1C02404FF480500349088008800880AB
:1006E000891E0880704700001A1C024010B504469D
:1006F00000F010F8FFF76EFFFFF7ECFF0020044951
:1007000008804880888088712046FFF73BFE10BD36
:10071000962100201CB500210F4800F05DFE01214C
:10072000802000F095FC01208DF8040003208DF856
:10073000050000208DF806008DF807004FF480506A
:1007400000906946054800F03DF94FF48050034998
:10075000183108801CBD0000000C0040001C024045
:1007600000BFFEE708B54FF4E06000F0ADFB2520C8
:100770008DF8000000208DF8020001208DF80300A4
:10078000684600F065FB26208DF8000001208DF8FA
:1007900002008DF80300684600F05AFB27208DF810
:1007A000000002208DF8020001208DF80300684649
:1007B00000F04EFB47208DF8000005208DF8020068
:1007C00001208DF80300684600F042FB08BD704729
:1007D00010B5402000F00EF820B1FFF79DFE40203C
:1007E00000F002F810BD00000149086070470000E9
:1007F000143C0140014600200022074B1B6803EA1D
:100800000102054B14331B680B4202D00AB10120D0
:1008100000E0002070470000003C01400021234917
:100820008279002A3AD00A46126803689A430B4636
:100830001A600A1D126803689A430B1D1A60027938
:1008400011440A6803681A430A60184A0832126899
:1008500003689A43154B08331A601A1D126803681F
:100860009A43124B0C331A604279102A0ED11A1F88
:10087000126803681A430D4B08331A601A1D126878
:1008800003681A43094B0C331A600DE0074942799B
:1008900011440A6803681A430A6005E002791144AA
:1008A0000A6803689A430A6070470000003C0140F0
:1008B00051B14FF0204252F8202042F001024FF097
:1008C000204343F8202009E04FF0204252F8202036
:1008D000034B1A404FF0204343F82020704700009C
:1008E000FEFF0F00D0E901121143C26811430269F3
:1008F00011434269114382691143C2691143026A7B
:100900001143426A1143826A1143C26A1143026B66
:1009100011434FF02043026843F8221081680829F0
:1009200008D11A46016852F8211041F040010268CE
:1009300043F82210416B0968426B526841EA021188
:10094000426B926841EA0221426BD26841EA02415D
:10095000426B126941EA0251426B526941EA0261FB
:10096000426B926911430268521C4FF0204343F8D6
:100970002210C16AB1F5804F1AD1816B0968826B70
:10098000526841EA0211826B926841EA0221826B4D
:10099000126941EA0251826B526941EA0261826B3B
:1009A00092691143026803EB8202C2F8041108E065
:1009B0006FF070414FF02043026803EB8202C2F8EF
:1009C0000411704770B50A46002100238C4600BF11
:1009D0003DE0012404FA01F3146804EA030C9C4589
:1009E00034D104684E000325B540AC43046014794B
:1009F0004D00AC4005682C4304601479012C02D0F2
:100A00001479022C16D184684E000325B540AC43FE
:100A1000846054794D00AC4085682C438460446800
:100A200001258D40AC434460446895798D40ADB25A
:100A30002C434460C4684E000325B540AC43C460F9
:100A4000D4794D00AC40C5682C43C460491C1029C2
:100A5000BFD370BD70B500239C464C07E40E02FA6C
:100A600004F3CD1000F1200454F825404D07EE0E9C
:100A70000F25B540AC43CE1000F1200545F82640C7
:100A8000CD1000F1200454F8254044EA030CCD10A9
:100A900000F1200444F825C070BD00BFFEE700004F
:100AA00000B587B00121084600F0D2FA01211020DC
:100AB00000F0FEFA07220921AB48FFF7CBFF07221F
:100AC0000A21A948FFF7C6FF00208DF81A0001206F
:100AD0008DF81B0002208DF81800000205900220FE
:100AE0008DF8190005A9A048FFF76CFF02208DF8CA
:100AF00018004002059005A99B48FFF763FF4FF4DB
:100B0000E13001900020ADF80800ADF80A00ADF822
:100B10000C00ADF810000C20ADF80E0001A99348B0
:100B200000F096FD012240F22551904800F06BFD47
:100B300001218E4800F02FFD40218C4800F022FD5D
:100B40000121084600F084FA0121480400F0A0FACF
:100B5000072203218448FFF77DFF00208DF81A004B
:100B600001208DF81B0002208DF818008DF8180068
:100B70000820059002208DF8190005A97A48FFF792
:100B800021FF4FF4165001900020ADF80800ADF899
:100B90000A00ADF80C00ADF810000420ADF80E000E
:100BA00001A9734800F054FD012240F2255170481C
:100BB00000F029FD01216E4800F0EDFC40216C4859
:100BC00000F0E0FC0121022000F042FA01208DF843
:100BD000180000208DF81A008DF81B0003208DF8F6
:100BE00019000420059005A96248FFF7EBFE0121DA
:100BF000022000F02DFA0121880400F049FA0722B2
:100C00000A215C48FFF726FF07220B215948FFF70E
:100C100021FF00208DF81A0001208DF81B00022012
:100C20008DF818004002059002208DF8190005A9E2
:100C30005048FFF7C7FE02208DF81800800205908B
:100C400005A94C48FFF7BEFE4FF416500190002056
:100C5000ADF80800ADF80A00ADF80C00ADF81000D2
:100C60000C20ADF80E0001A9434800F0F1FC012270
:100C700040F22551404800F0C6FC01213E4800F0FA
:100C80008AFC40213C4800F07DFC0121442000F01A
:100C9000DFF90121202000F00BFA08220E2137484D
:100CA000FFF7D8FE082207213548FFF7D3FE0822B8
:100CB00011463248FFF7CEFE08220F212F48FFF7DA
:100CC000C9FE00208DF81A0001208DF81B000220BB
:100CD0008DF818004003059002208DF8190005A931
:100CE0002648FFF76FFE02208DF81800802005903F
:100CF00005A92348FFF766FE02208DF81800C00101
:100D0000059005A91D48FFF75DFE02208DF818002B
:100D10008003059005A91948FFF754FE4FF4E13010
:100D200001900020ADF80800ADF80A00ADF80C0005
:100D30004FF44070ADF810000C20ADF80E0001A982
:100D4000104800F085FC012240F225510D4800F0CA
:100D50005AFC01210B4800F01EFC4021094800F01C
:100D600011FC07B000BD000000000240001001406F
:100D700000440040000402400048004000180240C7
:100D800000080240001401400448006910F4807F0C
:100D900001D1012070470020FCE700000020024044
:100DA0000448006810F4005F01D101207047002062
:100DB000FCE70000100802400448006910F4006FCE
:100DC00001D1012070470020FCE700000020024014
:100DD0000448006810F0040F01D101207047002082
:100DE000FCE70000101C02400448006810F0080FE7
:100DF00001D1012070470020FCE70000101C0240D8
:100E00000448006810F4006F01D1012070470020F1
:100E1000FCE70000101402400448006810F0800F46
:100E200001D1012070470020FCE7000010180240AB
:100E30000448006810F4004F01D1012070470020E1
:100E4000FCE70000101C024000BFFEE770470000F6
:100E500070B5002100230F22C47824B3174C2468F6
:100E600004F4E064C4F5E064C4F30721C1F10404B0
:100E7000E3B20A4144789C40E1B2847814402143B3
:100E80000C07210E0E4C05786155047804F01F05FF
:100E90000124AC4005786D114FF0E02606EB850586
:100EA000C5F8004109E0047804F01F050124AC40B6
:100EB000044D0678761145F8264070BD0CED00E033
:100EC00000E400E080E100E002490143024A1160D1
:100ED000704700000000FA050CED00E070470000CC
:100EE00010B512A000F044FD20A126A000F040FDA6
:100EF00029A12AA000F03CFD2DA130A000F038FD72
:100F000002230022012132A000F032FD37A000F0C0
:100F10002FFD38A000F02CFD3CA000F029FD42A0E0
:100F200000F026FD01A000F023FD10BD2A2A2A2A88
:100F30002A2A2A2A2A2A2A2A2A2A2A2A2A2A2A2A11
:100F40002A2A2A2A2A2A2A2A2A2A2A2A2A2A2A2A01
:100F50002A2A2A2A2A2A2A2A2A2A2A2A2A2A2A2AF1
:100F60002A2A2A2A2A2A2A2A2A0A0D0046342D3019
:100F700032395F414437363036C4A3BFE9C0FDB3D0
:100F8000CC0000002A20C0FDB3CCC3FBB3C6202098
:100F9000203A2025730D0A00312E30002A20C0FD92
:100FA000B3CCB0E6B1BE2020203A2025730D0A0054
:100FB000323031332D30322D303100002A20B7A2AB
:100FC000B2BCC8D5C6DA2020203A2025730D0A000D
:100FD0002A20B9CCBCFEBFE2B0E6B1BE203A202543
:100FE000642E25642E25640D0A0000002A200A0DB7
:100FF000000000002A205151202020203A203132C8
:101000003935373434363330200D0A002A20456D07
:1010100061696C203A2061726D666C794071712E45
:10102000636F6D200D0A00002A20436F707972698A
:10103000676874207777772E61726D666C792E639E
:101040006F6D20B0B2B8BBC0B3B5E7D7D30D0A00FF
:1010500029B1064A12680243044B1A6004E0034AAD
:1010600012688243014B1A6070470000303802401A
:1010700029B1064A12680243044B1A6004E0034A8D
:1010800012688243014B1A607047000038380240F2
:1010900029B1064A12680243044B1A6004E0034A6D
:1010A00012688243014B1A607047000040380240CA
:1010B00029B1064A12680243044B1A6004E0034A4D
:1010C00012688243014B1A607047000044380240A6
:1010D000F0B500210022002402258C460223304E68
:1010E000366806F00C0121B1042905D0082933D156
:1010F00005E02C4E066032E02B4E06602FE0284EB5
:10110000361F3668C6F3805C254E361F366806F0FB
:101110003F03BCF1000F0AD0234EB6FBF3F6204F7D
:101120003F1F3F68C7F3881706FB07F409E01D4E11
:10113000B6FBF3F61A4F3F1F3F68C7F3881706FB4D
:1011400007F4174E361F3668C6F30146761C750045
:10115000B4FBF5F6066002E0124E066000BF00BF69
:101160000F4E366806F0F0010909104E725C0668F1
:10117000D64046600A4E366806F4E051890A0B4EA6
:10118000725C4668D6408660054E366806F460415B
:10119000490B064E725C4668D640C660F0BD000042
:1011A000083802400024F40040787D010E00002041
:1011B0007047000030B500228B071C0F0F2303FA85
:1011C00004F20B4B8C1053F824309343084C8D10D1
:1011D00044F8253023468C1053F824308C07240F14
:1011E00000FA04F42343024C8D1044F8253030BD3E
:1011F0000838014000210020304A126842F4803251
:101200002E4B1A6000BF2D4A126802F40030491CB0
:1012100010B9B1F5A06FF6D1284A126812F4003F58
:1012200001D0012000E00020012845D1234A4032AE
:10123000126842F08052214B40331A60204A1268F3
:1012400042F480421E4B1A601C4A083212681B4B43
:1012500008331A601A46126842F400421A601A46AD
:10126000126842F4A0521A60164A1B1F1A601A1F15
:10127000126842F080721B1F1A6000BF0F4A12688A
:1012800012F0007FFAD040F205620F4B1A600B4A51
:101290000832126822F00302084B08331A601A461B
:1012A000126842F002021A6000BF044A0832126853
:1012B00002F00C02082AF8D1704700000038024002
:1012C0000070004019544007003C024010B500F087
:1012D00001F810BD10B51B48006840B119480068FE
:1012E000401E1849086002D10120174908700024E7
:1012F00008E004EB4401154A02EB810000F0E9FE2E
:10130000601CC4B2042CF4DB11480068401C104976
:101310000860084600686FF00041884202D1002052
:101320000B49086000F0D4FE0A480078401CC0B2A7
:10133000084908700A2803DB0020087000F0C4FE8A
:1013400010BD00000000002004000020C4000020A8
:10135000080000200C00002010B51548006840F47B
:101360007000134908601348006840F001001149FB
:10137000086000200F49083108600E4800680E49D7
:1013800008400C4908600D48091D0860081F0068E6
:1013900020F48020091F0860002006490C310860F5
:1013A000FFF728FF4FF0006001498039086010BD49
:1013B00088ED00E000380240FFFFF6FE1030002408
:1013C00021B1028842F08002028004E002884FF6D8
:1013D0007F731A400280704721B1028842F00102F7
:1013E000028004E002884FF6FE731A4002807047C4
:1013F00030B54FF0000C00220023048C4FF6FF653F
:101400002C400484028C8388B0F81CC04FF68F7483
:101410000CEA040C4FF6FC740CEA040C0C8844EA49
:101420000C0C4FF6FF5422408C89240642EA1442E9
:101430004C88240642EA1442144CA04202D0144CB8
:10144000A0421BD14FF2FF742240CC89240642EA0D
:1014500014424FF6FF3422408C88240642EA14429C
:101460004EF6FF7423404DF6FF7423400C8A24058A
:1014700043EA14434C8A240543EA14438380A0F8CA
:101480001CC08C68C463028430BD000000000140B1
:10149000000401400A460021818B4FF6F773194082
:1014A000114381837047000000220288184B984244
:1014B0000ED0184B98420BD0B0F1804F08D0164B8D
:1014C000984205D0154B984202D0154B984204D152
:1014D0004FF68F731A404B881A43124B984207D02D
:1014E000114B984204D04FF6FF431A400B891A4320
:1014F00002804B68C3620B880385054B984202D07B
:10150000044B984201D18B7A038601238382704772
:1015100000000140000401400004004000080040B9
:10152000000C0040001000400014004010B50248BC
:1015300000F001F910BD0000F400002010B50248D1
:1015400000F0F9F810BD00001809002010B502489D
:1015500000F0F1F810BD00003C110020042001490A
:101560000880704718040240042001490880704731
:101570001A04024010B5024800F0DDF810BD00006A
:101580006019002001F40072B2F5007F00D100BFA5
:10159000CA430280704721B1828942F4005282819D
:1015A00004E082894DF6FF731A408281704730B59E
:1015B0000246002400239C460020A1F510656A3DE8
:1015C00000D100BFC1F3421C01F01F03012505FA41
:1015D00003F3BCF1010F02D195892B4007E0BCF168
:1015E000020F02D1158A2B4001E0958A2B400C1284
:1015F000012505FA04F415882C4013B10CB1012023
:1016000000E0002030BD70B503460024A44600254C
:101610000020A1F510666A3E00D100BF1846C1F354
:10162000421401F01F0C012606FA0CF5012C01D121
:101630000C3004E0022C01D1103000E014301AB15B
:1016400006682E43066002E00668AE43066070BD81
:101650002DE9FF4705460E460024A14600BFA046DF
:10166000B08900B100BF2C8A24F44054F0880443B0
:101670002C82AC8941F20C608443B08831890843E4
:10168000718908430443AC81AC8A24F44074B08966
:101690000443AC826846FFF71BFD2048854202D018
:1016A0001F48854202D1DDF80C9001E0DDF808907A
:1016B000A88910F4004F08D009EBC90000EB09100D
:1016C00031684900B0FBF1F707E009EBC90000EB16
:1016D000091031688900B0FBF1F76420B7FBF0F026
:1016E00004012009642101FB1078A88910F4004F3F
:1016F00008D0322000EBC800B0FBF1F000F007008A
:10170000044308E0322000EB08106421B0FBF1F044
:1017100000F00F0004432C81BDE8FF87001001405A
:101720000014014001468888C0F308007047C1F3E7
:1017300008028280704710B5044640F225512068A7
:10174000FFF735FFB0B1A08AE18A884203D1206A51
:1017500008B1206A80472068FFF7E4FFA28AA168E9
:101760008854A08A401C80B2A082E189884201DBB3
:101770000020A08240F227712068FFF718FF00B315
:10178000608A218A88420CD1002240F227712068A9
:10179000FFF739FF012240F226612068FFF733FF8F
:1017A00033E0638A6268D15C2068FFF7C0FF608A1B
:1017B000401C80B26082A189884226DB00206082C2
:1017C00023E040F226612068FFF7F1FEE8B1608A6D
:1017D000218A88420AD1002240F226612068FFF760
:1017E00012FFE06988B1E06980470EE0638A6268B1
:1017F000D15C2068FFF79BFF608A401C80B260824A
:10180000A189884201DB0020608210BD2DE9F041F2
:1018100004460E46904600252AE012E0012000F022
:10182000C9F8678A002000F0C5F8781C80B2074626
:10183000A189884200DB0027208AB84200D001E05D
:1018400000BFEBE700BF705D228A61688854012009
:1018500000F0B0F8208A401C80B22082A189884222
:1018600001DB00202082002000F0A4F8681C85B273
:101870004545D2DB012240F227712068FFF7C3FE05
:10188000BDE8F08127482849086028484860284872
:1018900088604FF480608881C88100200882488277
:1018A0008882C8828861C86108622248224908602B
:1018B000224848602248886001208881C002C8818F
:1018C0000020088248828882C8828861C8610862D4
:1018D0001C481D4908601D4848601D4888604FF439
:1018E00080608881C8810020088248828882C882FE
:1018F000184888611848C8610020086217481849CC
:10190000086018484860184888604FF480608881F3
:10191000C8810020088248828882C8828861C861A4
:101920000862704700100140F400002018010020F8
:101930001805002000440040180900200D00002078
:101940003C090020004800403C11002060110020AC
:10195000601500205D15000869150008001401409D
:101960006019002084190020841D002000BFFEE7BC
:101970000FB4054B10B503A9044A029800F01EF8F5
:1019800010BC5DF814FB00000922000834000020A0
:1019900002E008C8121F08C1002AFAD17047704738
:1019A000002001E001C1121F002AFBD1704780F323
:1019B0001088704780F31088704700002DE9FF4FB2
:1019C0008BB005468846002667E125287AD1002499
:1019D0006D1CB64AA146A24601212B78203B01FA94
:1019E00003F0104202D004436D1CF6E728782A2841
:1019F00010D06FF02F022878A0F13001092915D8F6
:101A000009EB890102EB410144F0020400EB0109FA
:101A10006D1CF0E758F8049BB9F1000F03DA44F4A9
:101A20000054C9F1000944F002046D1C28782E28E6
:101A300017D115F8010F44F004042A280ED06FF0D6
:101A40002F022878A0F1300109290AD80AEB8A016F
:101A500002EB410100EB010A6D1CF2E758F804AB00
:101A60006D1C28786C280FD006DC4C2817D068280D
:101A70000DD06A2814D104E0742810D07A280FD130
:101A80000DE044F400140AE044F4801401E044F44E
:101A900040146978814202D16D1C04F580146D1CDC
:101AA0002878692866D007DC002876D0632828D0FB
:101AB000642807D15EE005E06E2808D073282AD09C
:101AC00075287AD0DDE90D129047761CE4E0C4F366
:101AD0000250022809D003280DD0D8F8001004289D
:101AE0000DD00E6008F10408D6E0D8F80010F21707
:101AF000C1E90062F6E7D8F800100E80F2E70E7038
:101B0000F0E758F8041B8DF8001000208DF8010054
:101B1000EB46012003E058F804BB4FF0FF306107AB
:101B20004FF0000701D40AE07F1C57450DDA8742C9
:101B3000FADB1BF807100029F6D106E07F1C87426C
:101B4000FCDB1BF807100029F8D1DDE90D23A9EB18
:101B500007008146214600F0BEF83044C61904E073
:101B6000DDE90D121BF8010B90477F1EF8D22146CC
:101B700048468CE058F8040BC4F302514FF00A0BAE
:101B8000032900D100B2042900D140B2002806DAAE
:101B9000C0F100004FF02D0104E082E00DE02105CE
:101BA00004D52B218DF82810012103E0E10710D086
:101BB0002021F7E708AF089114E058F8040BC4F3AC
:101BC00002514FF00A0B032900D180B2042900D141
:101BD000C0B20021EEE75946FEF7F2FA01F13001FA
:101BE00007F8011D0028F6D1ADEB070000F1200B2E
:101BF000600702D524F4803401E04FF0010ADA4591
:101C000002DDAAEB0B0000E00020824600EB0B0196
:101C100008980144A9EB01000990E00306D4DDE92E
:101C20000D232146099800F056F80644002008E0EC
:101C30000AA8DDE90D1210F809009047761C09F199
:101C40000100089981468842F2DBE0030CD5DDE90A
:101C50000D232146099800F03EF8064404E0DDE932
:101C60000D1230209047761CBAF10001AAF1010A4A
:101C7000F5DC05E0DDE90D1217F8010B9047761C45
:101C8000BBF10001ABF1010BF4DC09982146DDE961
:101C90000D2300F00DF806446D1C287800287FF411
:101CA00094AE0FB03046BDE8F08F00000928010067
:101CB0002DE9F0410446002517461E46880405D448
:101CC00006E039462020B04705F10105641EF8D52D
:101CD0002846BDE8F0812DE9F041044600259046F4
:101CE0001E46C80301D5302700E02027880405D50B
:101CF00006E041463846B04705F10105641EF8D5B7
:101D00002846BDE8F08100000146042901DB0020DF
:101D1000704701EB4100084A02EB8000407801283F
:101D200008D1002001EB4102034B03EB820250700B
:101D30000120EDE70020EBE7C400002070B5054668
:101D4000304800EB05142068804700283ED02079F9
:101D5000052802DA0520207152E020790A2803DAEA
:101D60002079401C20714BE0A07A38B90120A07284
:101D700005EB4501491CC8B200F096F920890028FE
:101D80003EDDE088218988420DDAE088401C80B27F
:101D9000E0802189884233D105EB4501C91CC8B2D6
:101DA00000F082F92CE0E07A002829DD207B401C3D
:101DB000C0B22073E17A884222DB0020207305EB59
:101DC0004501491CC8B200F06FF919E020790528D7
:101DD00002DD0520207110E0207918B12079401E25
:101DE00020710AE0A07A012807D10020A07205EB3B
:101DF0004501891CC8B200F057F90020E08020732B
:101E000070BD0000380000200B48807A0A4AD27A60
:101E1000904201D1002070470748807A064A115C41
:101E20001046807A401CC0B290720A2801DB002064
:101E300090720846EFE70000B8000020704710B528
:101E400000F01EF900F018F800F0CCF810BD00000A
:101E500010B5FEF7DDF9FEF731FB0020FEF7DCFBE5
:101E60000020FEF7C3FBFEF7B5FB4FF4805001499D
:101E7000088010BD181C024010B500F053F800F0A7
:101E800001F810BD1CB501214FF4F270FFF7E0F826
:101E900000208DF804008DF806008DF80700022060
:101EA0008DF80500C001009069461948FEF78AFDCB
:101EB0004FF40050009069461648FEF783FD4FF43A
:101EC0000060009069461248FEF77CFD04200090F7
:101ED00069461148FEF776FD0820009069460E48D5
:101EE000FEF770FD4FF40060009069460B48FEF766
:101EF00069FD8020009069460948FEF763FD4FF4B4
:101F00000040009069460448FEF75CFD1CBD0000DF
:101F10000020024000080240001C02400014024061
:101F2000001802400021254A9172D172002018E069
:101F30006421234A02EB001211810221204A02EBA4
:101F40000012117100211E4A02EB001291721C4A0C
:101F500002EB0012D1721A4A02EB00121173411CFB
:101F6000C8B20828E4DB642215490A87052281F8F3
:101F70003B206422A1F84820052281F84B206422EE
:101F8000A1F85820052281F85B206422A1F868207E
:101F9000052281F86B200B49094A11600A49116139
:101FA0000A4911620A4911630A4911640A49116513
:101FB0000A4911660A49116770470000B8000020FD
:101FC00038000020890D0008A10D0008B90D000897
:101FD000D10D0008E90D0008010E0008190E0008D7
:101FE000310E000870B5002016E0002100EB400221
:101FF0001F4B03EB8202516000EB400203EB8202B5
:10200000916000EB400203EB8202517000EB400252
:1020100003F82210411CC8B20428E6DB1549096800
:102020004FF47A73B1FBF3F2B2F1807F00D31DE07D
:1020300022F07F41491E4FF0E023596159170F23C9
:10204000002907DA1C07260E0B4C01F00F052D1F87
:10205000665503E01C07250E084C655400BF00219F
:102060004FF0E02399610721196100BF70BD0000A6
:10207000C40000202000002018ED00E000E400E093
:1020800010B5FFF7FFFBFEF70BFDFEF76BFB10BD76
:1020900010B5002404E02046FFF750FE601CC4B2D7
:1020A000082CF8DB10BD00000649C97A054A5054D7
:1020B0001146C97A491CC9B2D1720A2901DB002133
:1020C000D1727047B800002010B5FFF7E1FF10BDD6
:1020D0007047416851B14168491E416006D10121F4
:1020E00041700178012901D1816841607047000089
:1020F00070B504460D46042C06DB124A12A11DA041
:10210000FFF736FC00BFFEE70120FFF750FC04EBB1
:102110004400204901EB8000456004EB440001EBE2
:1021200080008560002004EB44011A4A02EB810123
:102130004870012004EB440102F821000020FFF761
:1021400036FC70BD4B2400082E2E5C2E2E5C557381
:1021500065725C6273705F73746D33326634787865
:102160005C7372635C6273705F74696D65722E6319
:10217000000000004572726F723A2066696C65203B
:1021800025732C2066756E6374696F6E2025732825
:10219000290D0A00C40000202DE9F04104460E4636
:1021A00017460CB9104D13E0012C01D10F4D0FE073
:1021B000022C01D10E4D0BE0032C01D1BDE8F081C2
:1021C000042C00D1FAE7052C01D10A4D00E0F5E717
:1021D000A86908B1A86980473A4631462846FFF702
:1021E00015FB00BFEAE70000F400002018090020FA
:1021F0003C1100206019002013B50446012201A9FA
:102200002046FFF7C9FF1CBD70B504460D46E1B27C
:102210000020FFF7F1FF204670BD000008B5002543
:10222000FFF70DFEFEF75CFE0026FFF711FE002013
:10223000FEF7F2F90020FEF7D9F94FF4FA71002009
:10224000FFF756FFFEF746FA00BF84E0FFF7F6FD02
:10225000012D22D100254048027841783FA0FFF7A8
:1022600087FB3D48B0F9080000903B48B0F90630C4
:10227000B0F90420B0F902103EA0FFF779FB364810
:10228000B0F9100000903448B0F90E30B0F90C20CD
:10229000B0F90A1043A0FFF76BFB4EB90020FFF71F
:1022A00033FD50B1FEF768F9FEF714FA012504E09A
:1022B0000020FFF729FD00B10125FFF7A5FD044629
:1022C000002C48D00D2C36D008DC012C0DD0042C6D
:1022D00017D0072C1DD00A2C3BD121E0102C35D073
:1022E000132C34D0162C34D132E01B48407818B966
:1022F0000120FEF77BF902E00020FEF777F90125C7
:1023000028E0012632A0FFF733FB3F48FEF7EEF945
:1023100020E0FEF7FFF900263CA0FFF729FB19E0BB
:102320000D480078062804DA0B480078401C0A495A
:10233000087001250EE008480078002804DD0648F2
:102340000078401E04490870012503E002E001E026
:1023500000E000BF00BF79E78421002052616E6772
:1023600065203D2025642C204F53203D2025642CE2
:1023700020000000434831203D202536642C2043B6
:102380004832203D202536642C20434833203D2010
:102390002536642C20434834203D202536642C20EB
:1023A00000000000434835203D202536642C2043A2
:1023B0004836203D202536642C20434837203D20D8
:1023C0002536642C20434838203D202536640D00F6
:1023D0000D0A414437363036BDF8C8EB4649464F02
:1023E000B9A4D7F7C4A3CABD20283230304B487AED
:1023F0002038CDA8B5C0CDACB2BDB2C9BCAF292E76
:102400002E2E0D0A00000000400D03000D0A41446D
:1024100037363036BDF8C8EBC6D5CDA8B9A4D7F746
:10242000C4A3CABD28302E35C3EBB6A8CAB1B2C901
:10243000BCAF292E2E2E0D0A000000006273705FC3
:10244000537461727454696D6572006273705F5386
:10245000746172744175746F54696D657200627352
:10246000705F53746F7054696D6572008C2400083E
:10247000000000203800000090190008C424000863
:102480003800002068710000A0190008000000005A
:102490000000000000000000000000000000010239
:1024A000030401020304060708090000007A030A76
:1024B00000000000000000000102030406070809F4
:0424C0000000000018
:040000050800018965
:00000001FF
